:020000040800F2
:10000000680C0020811B0008C11B0008C31B0008EE
:10001000C51B0008C71B0008C91B00080000000022
:10002000000000000000000000000000CB1B0008E2
:10003000CD1B000800000000CF1B0008D11B0008EA
:100040009B1B00089B1B00089B1B00089B1B0008B8
:100050009B1B00089B1B00089B1B00089B1B0008A8
:100060009B1B00089B1B00089B1B00089B1B000898
:100070009B1B00089B1B00089B1B00089B1B000888
:100080009B1B00089B1B00089B1B00089B1B000878
:100090009B1B00089B1B00089B1B00089B1B000868
:1000A0009B1B00089B1B00089B1B00089B1B000858
:1000B000B72900089B1B0008000000009B1B0008DC
:1000C0009B1B000800000000000000009B1B0008B4
:1000D00000000000BD2100086B2B0008000000009C
:1000E0009B1B00089B1B00089B1B000800F002F8EC
:1000F00000F06DF80AA090E8000C82448344AAF155
:100100000107DA4501D100F062F8AFF2090EBAE852
:100110000F0013F0010F18BFFB1A43F0010318473B
:10012000744E0000944E00000A444FF0000C10F88A
:10013000013B13F0070408BF10F8014B1D1108BF65
:1001400010F8015B641E05D010F8016B641E01F805
:10015000016BF9D113F0080F1EBF10F8014BAD1C55
:100160000C1B09D16D1E58BF01F801CBFAD505E073
:1001700014F8016B01F8016B6D1EF9D59142D6D3CD
:10018000704700000023002400250026103A28BFF5
:1001900078C1FBD8520728BF30C148BF0B607047F9
:1001A000662904F00C82642902F0A887752902F000
:1001B000A587002070471FB503F028FB040000202E
:1001C000002104F075F8E0601FBD10B510BD03F00C
:1001D0001DFC1146FFF7EFFF01F0B6FD03F03BFCFD
:1001E00003B4FFF7F2FF03BC01F092FF2A49084372
:1001F0002A490860704770B50F23C278012601783C
:10020000002A1ED0254A126802F4E062C2F5E062BC
:10021000120AC2F10404D3404578A54082781A40FE
:100220002A43120101F1E02181F80024007800F056
:100230001F018E404009800000F1E020C0F80061FD
:1002400070BD01F01F0086404809800000F1E020E9
:10025000C0F8806170BD124A114001430F48001F71
:10026000016070470D4A121D002903D01168014337
:100270001160704711688143116070474FF0E021B1
:10028000042804D0086920F0040008617047086958
:1002900040F00400086170470000FA050CED00E032
:1002A00080FFFF1F10B5DB4988420AD144150121A8
:1002B000204600F040FC2046BDE81040002100F040
:1002C0003ABCD54988420AD104150121204600F0E4
:1002D00032FC2046BDE81040002100F02CBCCF4984
:1002E00088420AD10121CC03204600F024FC20469C
:1002F000BDE81040002100F01EBC10BD10B54268E2
:10030000C74B1A400C790B6842EA0422134343603E
:100310008268C44B1A40D1E9024323434C7942EA34
:10032000440213438360C26A22F47002097C491EAE
:10033000C9B242EA0151C16210BD002101600171E0
:1003400041718160C160012101747047002904D0AE
:10035000816841F0010181607047816821F00101ED
:1003600081607047002904D0816841F48071816008
:100370007047816821F4807181607047C9B2002A9A
:1003800003D042680A434260704742688A43426031
:100390007047816841F00801816070470146002084
:1003A0008968090700D501207047816841F0040180
:1003B00081607047014600208968490700D5012007
:1003C0007047002904D0816841F4A0018160704722
:1003D000816821F4A001816070470146002089688E
:1003E000490200D501207047426822F46042491E4C
:1003F00042EA413141607047002904D0416841F42C
:10040000006141607047416821F4006141607047BC
:1004100070B5072609290AD9C568A1F10A0404EBB9
:100420004404A640B543A3401D43C56007E00569E9
:1004300001EB4104A640B543A3401D4305611F23C2
:10044000072A09D2446B521E02EB820293409C435E
:1004500091400C43446370BD0D2A09D2046BD21F36
:1004600002EB820293409C4391400C43046370BDB5
:10047000C46A0D3A02EB820293409C4391400C43C4
:10048000C46270BD002904D0816841F4801181608C
:100490007047816821F4801181607047C06C80B220
:1004A00070475C484C3000687047002904D04168B0
:1004B00041F4806141607047416821F4806141608E
:1004C0007047002904D0416841F480514160704771
:1004D000416821F4805141607047826822F4E04213
:1004E0000A4382607047002904D0816841F40041CA
:1004F00081607047816821F4004181607047002964
:1005000004D0816841F4021181607047816821F450
:10051000021181607047014600208968890200D578
:100520000120704770B5072609290AD9C568A1F1CD
:100530000A0404EB4404A640B543A3401D43C56030
:1005400007E0056901EB4104A640B543A3401D4304
:100550000561836BC3F30154121B921C02EB8202F0
:100560001F249440A34391400B43836370BD826B6F
:1005700022F44012491E42EA01518163704708B5D6
:1005800000900098084400900098026008BD08B5EB
:10059000009000980844283000900098006880B2CD
:1005A00008BD4268204B1A400A43426070474162CE
:1005B00082627047426822F01F020A43426070471D
:1005C00014490831002804D0086840F4000008608D
:1005D0007047086820F40000086070470246002059
:1005E00012680A4200D001207047C9430160704779
:1005F00010B5024600200B0A5468C9B20C401168BD
:10060000194202D0002C00D0012010BD090AC943B4
:10061000016070470024014000280140003C014077
:10062000FFFEF0FFFDF7F1FFFFFD3FFF10B59C4916
:10063000884209D10121042000F07DFA0021BDE8A3
:100640001040042000F077BA9649884209D1012170
:10065000082000F070FA0021BDE81040082000F0EA
:100660006ABA9149884209D10121102000F063FA49
:100670000021BDE81040102000F05DBA8B4988428F
:1006800009D10121202000F056FA0021BDE81040D8
:10069000202000F050BA8649884209D1012140202B
:1006A00000F049FA0021BDE81040402000F043BAB4
:1006B0008049884209D10121802000F03CFA0021C4
:1006C000BDE81040802000F036BA7B4988420AD14C
:1006D00084150121204600F02EFA2046BDE8104086
:1006E000002100F028BA10BD10B50121084600F025
:1006F00022FA0021BDE81040012000F01CBA2DE9CB
:10070000F0410022CC7804F00F03E40601D58C7888
:1007100023430C784FF00F0714F0FF0F4FF0010C3C
:100720001CD005680CFA02F40E882640A64211D1AE
:10073000960007FA06F825EA080503FA06F848EADB
:100740000505CE78282E02D0482E02D002E0446162
:1007500000E00461521C082AE4D305600A88FF2ADD
:100760001ED94568002202F108060CFA06F40E882C
:100770002640A64210D1960007FA06F825EA080599
:1007800003FA06F848EA0505CE78282E00D1446120
:10079000CE78482E00D10461521C082AE3D345606C
:1007A000BDE8F0814FF6FF710180022181700421C4
:1007B000C17070470246002092680A4200D00120B2
:1007C0007047806880B2704702460020D2680A42B3
:1007D00000D001207047C06880B270470161704747
:1007E00041617047002A01D0016170474161704743
:1007F000C160704741F480328261816182618169A8
:100800008069704710B52D4B1A684FF680742240EE
:1008100042EA00100843186010BD2949C8617047BA
:10082000F0B5264C002801DAE36900E06368C0F304
:100830000346420D120185B2C0F301579540032FC4
:1008400007D0C2020CD50322B240934343F070623A
:1008500009E023F07062636823F07063636002E074
:10086000AB4343F0706201B12A43002801DAE26130
:10087000F0BD6260F0BD10B58A07120F0F239340E0
:1008800021F003040D4921448C689C438C608B68E3
:10089000904003438B6010BD0949DC31086070470C
:1008A00000080140000C014000100140001401400C
:1008B00000180140001C01400020014000000140E0
:1008C00000002042B448016841F001010160416824
:1008D000B24A114041600168B14A114001600168AB
:1008E00021F480210160416821F4FE0141604FF450
:1008F0001F0181607047A8490A6822F480320A60AB
:100900000A6822F480220A60B0F5803F07D0B0F573
:10091000802F03D1086840F4A02008607047086861
:1009200040F48030086070470346002059099A4A15
:1009300001290AD002290AD0516A03F01F020123BB
:1009400093400B4200D0012070471168F5E7116A0F
:10095000F3E718B5002000904FF4A0643120FFF7B2
:10096000E3FF0099491C00910099A14201D00028A1
:10097000F4D03120FFF7D8FF08B1012018BD0020C6
:1009800018BD854A116821F0F80141EAC0001060E5
:1009900070478449086070477F4B5A6822F47C1284
:1009A00008431043586070477E49086670477A4A8A
:1009B000516821F003010143516070477648406857
:1009C00000F00C007047744A516821F0F0010143B7
:1009D00051607047704A516821F4E06101435160F1
:1009E00070476D4A516821F4605141EAC00050607F
:1009F0007047694A002903D0517A01435172704708
:100A0000517A8143517270476649D8310860704706
:100A1000614A516821F440410143516070475E4989
:100A2000002220310A7001F82029012805D004286D
:100A300002D1052081F820007047012081F82000B4
:100A4000704759490860704753490A6A02430A626D
:100A50007047554944390860704710B54E4A51688F
:100A600001F00C01514B002927D0042927D0082977
:100A700027D00360516801F0F00109094C4B5C5C20
:100A80000168E1404160546804F4E064240A1C5D9C
:100A900021FA04F48460546804F46054E40A1B5D91
:100AA000D940C160526802F44042920B404B1B1F78
:100AB0009A5CB1FBF2F1016110BD0360DAE70360FB
:100AC000D8E7516801F47011536803F480330224AD
:100AD00004EB914133B153689B0307D5354B594320
:100AE0000160C7E7334B59430160C3E72F4B5943BC
:100AF0000160BFE7284A002903D0516901435161D1
:100B000070475169814351617047234A002903D0DE
:100B10009169014391617047916981439161704787
:100B20001D4A002903D0D1690143D1617047D169C1
:100B30008143D1617047184A002903D0D16801432D
:100B4000D1607047D1688143D1607047124A002953
:100B500003D011690143116170471169814311612B
:100B6000704711494039086070470E49C8647047A2
:100B70000949C87170470848416A41F08071416273
:100B8000704701460020044A92680A4200D00120C2
:100B90007047014988727047001002400000FFF85A
:100BA000FFFFF6FE000042428004424200127A003B
:100BB0000400002000093D0010B5FE4988420AD11A
:100BC000C41401212046FFF7B6FF2046BDE81040BF
:100BD0000021FFF7B0BFB0F1804F0CD0F64988423A
:100BE00013D101210220FFF7B1FF0021BDE8104021
:100BF0000220FFF7ABBF01210846FFF7A7FF002146
:100C0000BDE810400120FFF7A1BFEC49884209D19F
:100C100001210420FFF79AFF0021BDE810400420C5
:100C2000FFF794BFE649884209D101210820FFF768
:100C30008DFF0021BDE810400820FFF787BFE14984
:100C4000884209D101211020FFF780FF0021BDE873
:100C500010401020FFF77ABFDB49884209D10121FB
:100C60002020FFF773FF0021BDE810402020FFF790
:100C70006DBFD64988420AD1441401212046FFF7AE
:100C80005AFF2046BDE810400021FFF754BFD0496D
:100C900088420AD10121CC042046FFF74CFF2046B0
:100CA000BDE810400021FFF746BFCA4988420AD17B
:100CB00001210C052046FFF73EFF2046BDE810400D
:100CC0000021FFF738BFC44988420AD101214C05F1
:100CD0002046FFF730FF2046BDE810400021FFF717
:100CE0002ABFBE49884209D101214020FFF72EFFCB
:100CF0000021BDE810404020FFF728BFB8498842D6
:100D000009D101218020FFF721FF0021BDE810401B
:100D10008020FFF71BBFB34988420AD18415012107
:100D20002046FFF713FF2046BDE810400021FFF7E3
:100D30000DBFAD4988420AD101210C042046FFF7BE
:100D4000FAFE2046BDE810400021FFF7F4BEA74997
:100D500088420AD101214C042046FFF7ECFE2046D0
:100D6000BDE810400021FFF7E6BEA14988420AD144
:100D700001218C042046FFF7DEFE2046BDE810402E
:100D80000021FFF7D8BE10BD30B50288894C8F4DC9
:100D9000A0420DD0A8420BD0B0F1804F08D0864BB6
:100DA000984205D0854B984202D0854B984203D19A
:100DB00022F070034A881A43824B984206D0824B35
:100DC000984203D022F44073CA881A4302808A886A
:100DD00082850A880285A0420AD0A84208D0824AA9
:100DE000904205D0814A904202D0814A904201D17E
:100DF000097A01860121818230BD30B5028C22F052
:100E000001020284028C8388048B24F0700424F095
:100E100003050C882C4322F002020D8915434A88F1
:100E20002A43644DA8420BD0684DA84208D06E4DAD
:100E3000A84205D06D4DA84202D06D4DA8420FD1F9
:100E400022F008054A892A4322F004058A882A43A9
:100E500023F4807323F400738D891D43CB892B43C6
:100E600083800483C9888186028430BD70B5028C7A
:100E700022F010020284028C8388048B24F4E04464
:100E800024F440760D884FF6FF7404EA05253543B7
:100E900022F020020E8904EA061616434A8804EA64
:100EA00002123243434EB04202D0484EB04217D1F4
:100EB00022F080024E8904EA0616164326F0400608
:100EC0008A8804EA0212324323F4806323F4006325
:100ED0008E8904EA86061E43CB8904EA83033343E2
:100EE00083800583C9880187028470BD70B5028C38
:100EF00022F480720284028C8388848B24F0700434
:100F000024F003040D88254322F400720E894FF665
:100F1000FF7404EA062616434A8804EA0222324392
:100F2000244EB04202D0294EB04217D122F40066BE
:100F30004A8904EA0222324322F480668A8804EA5B
:100F40000222324323F4805323F400538E8904EAAF
:100F500006161E43CB8904EA03133343838085833B
:100F6000C9888187028470BD70B5028C22F48052DA
:100F70000284058C8288838B23F4E04323F440763B
:100F80000C884FF6FF7303EA0424344325F400551C
:100F90000E8903EA06362E434D8803EA05353543AC
:100FA000044EB04202D0094EB04226D122F480460F
:100FB0008A891FE0002C0140000400400008004026
:100FC000000C0040001000400014004000340140BC
:100FD000004C014000500140005401400018004006
:100FE000001C00400020004000400140004401403F
:100FF0000048014003EA8212324382808483C98818
:10100000A0F84010058470BD828B22F44062828378
:10101000828B4FF6FF7303EA01210A4382837047F4
:10102000F0B5048C24F480540484868B048C4FF631
:10103000FF7505EA013726F4734605EA02223243BA
:1010400005EA03331343F74A90420ED0F64A904222
:101050000BD0B0F1804F08D0F44A904205D0F44A4A
:10106000904202D0F34A904205D124F40051394312
:1010700041F4805104E024F402420A4342F48051D6
:1010800083830184F0BD828B22F00C028283828BE9
:101090000A4382837047F0B5048C24F4807404847E
:1010A000858B048C4FF6FF7707EA012625F0F305C0
:1010B00007EA031313432B43DA4A90420ED0DA4A6D
:1010C00090420BD0B0F1804F08D0D84A904205D062
:1010D000D74A904202D0D74A904205D124F40071F9
:1010E000314341F4807104E024F420620A4342F465
:1010F000807183830184F0BD028B22F440620283FD
:10110000028B4FF6FF7303EA01210A430283704703
:10111000F0B5048C24F010040484068B048C4FF684
:10112000FF7505EA011726F4734605EA03333343D6
:1011300005EA02221A43BB4B98420ED0BA4B9842A2
:101140000BD0B0F1804F08D0B84B984205D0B84BC7
:10115000984202D0B74B984205D124F02001394380
:1011600041F0100104E024F0A0030B4343F0100110
:1011700002830184F0BD028B22F00C020283028BF9
:101180000A430283704770B5048C24F00104048480
:10119000058B048C25F0F3054FF6FF7606EA031362
:1011A00013432B439F4A90420ED09F4A90420BD04C
:1011B000B0F1804F08D09D4A904205D09C4A9042A1
:1011C00002D09C4A904205D124F002020A4342F028
:1011D000010104E024F00A020A4342F00101038302
:1011E000018470BD70B505460C468E48854209D015
:1011F0008D48854206D0B5F1804F03D08B4885429B
:1012000000D08B4820886188A288238958B104289F
:1012100011D0082817D02846FFF702FFE18828469A
:10122000BDE87040F0E62846FFF7ADFFE1882846AC
:10123000BDE870409FE72846FFF76AFFE18828462F
:10124000BDE8704058E72846FFF725FFE1882846AB
:10125000BDE8704017E72DE9F04107460C46002530
:1012600001266188002900D10225A288012A00D127
:1012700002262088238988B13846FFF749FFE18894
:101280003846FFF739FF2389324629463846FFF7AB
:101290007AFFE1883846BDE8F0416CE73846FFF751
:1012A00072FFE1883846FFF766FF238932462946F8
:1012B0003846FFF72DFFE1883846BDE8F0411BE7CF
:1012C00010B50A884B88CC881A438B8823431A436D
:1012D0000B891A434B8989891A430A43A0F8442091
:1012E00010BD4FF6FF71818000210180C1804180D7
:1012F000017270470021018041808180C18001819D
:1013000041818181C181704700210180418001229A
:101310008280C180018170470021018041808180ED
:10132000C1800181418181817047002904D00188F9
:1013300041F0010101807047018821F00101018025
:101340007047002905D030F8441F41F40041018066
:10135000704730F8441FC1F30E0101807047002A26
:1013600003D082890A438281704782898A438281BD
:101370007047818270471143A0F848107047002AD7
:1013800003D082890A438281704782898A4382819D
:101390007047018921F0070101817047028922F01D
:1013A00070020A430281704700B503461846FFF7F2
:1013B000F5FF188940F00700188100BD70B50D4693
:1013C00004461146602D0CD001222046FFF7DBFEBB
:1013D00029462046FFF7E2FF208940F007002081E0
:1013E00070BD01222046FFF793FEF1E730B5048976
:1013F000E4B24FF6FF7505EA032313430B4323437F
:10140000038130BD10B504462046FFF7EFFF208969
:1014100020F0070040F0070020F0700040F070005E
:10142000208110BD002C0140003401400004004028
:1014300000080040000C004010B504462046FFF7AD
:10144000D5FF208940F480402081EAE7018582822F
:101450007047028822F070020A430280704770B51C
:101460000589048B068C25F007050D434FF6FC41DA
:101470000C4040F201110C4326F022064FF6FF719A
:1014800001EA03111143314305810483018470BDD6
:10149000028B22F070020A4302837047028B22F40F
:1014A000E0424FF6FF7303EA0121114301837047C5
:1014B000828B22F070020A4382837047828B22F46F
:1014C000E0424FF6FF7303EA012111438183704725
:1014D000002904D0018841F0800101807047018813
:1014E00021F0800101807047002904D0818841F0FB
:1014F000040181807047818821F004018180704758
:10150000002904D0818841F00801818070478188DA
:1015100021F0080181807047002904D0818841F0C2
:10152000010181807047818821F00101818070472D
:10153000028B22F008020A4302837047028B22F4D6
:1015400000624FF6FF7303EA0121114301837047E4
:10155000828B22F008020A4382837047828B22F436
:1015600000624FF6FF7303EA012111438183704744
:10157000028B22F004020A4302837047028B22F49A
:1015800080624FF6FF7303EA012111430183704724
:10159000828B22F004020A4382837047828B22F4FA
:1015A00080624FF6FF7303EA012111438183704784
:1015B000028B22F080020A4302837047028BC2F33F
:1015C0000E024FF6FF7303EA0121114301837047B6
:1015D000828B22F080020A4382837047828BC2F39F
:1015E0000E024FF6FF7303EA012111438183704716
:1015F000028C22F002020A4302847047028C22F01D
:1016000008020A4302847047028C22F020024FF63F
:10161000FF7303EA0111114301847047028C22F029
:1016200080024FF6FF7303EA0111114301847047F2
:10163000028C22F400724FF6FF7303EA012111437A
:1016400001847047028C22F400624FF6FF7303EAB4
:101650000121114301847047028C22F400524FF69D
:10166000FF7303EA013111430184704710B5012370
:101670008B40048C9C430484038C8A401343038472
:10168000CFE610B504238B40048C9C430484038C68
:101690008A4013430384C4E630B500F118030124E3
:1016A0008C40058CA5430584002911D008290FD052
:1016B000091FC1F34E001844016821F4E0410160A4
:1016C00001684FF6FF7303EA02221143016030BD47
:1016D00003EB5100016821F07001016001681143C2
:1016E000016030BD002904D0018841F00201018071
:1016F0007047018821F0020101807047002904D061
:10170000018841F0040101807047018821F0040143
:1017100001807047002904D0818841F080018180D8
:101720007047818821F0800181807047028822F013
:101730000802028002880A4302807047828822F0F1
:101740007002828082880A4382807047028922F078
:101750000702028102890A4302817047028922F04E
:101760008002028102890A430281704781847047A6
:1017700081857047818670470187704781877047F0
:10178000A0F840107047028822F44072028002885C
:101790000A4302807047808E7047008F7047808FA9
:1017A0007047B0F840007047808C7047008D7047DC
:1017B00002460020128A0A4200D001207047C94325
:1017C0000182704702460020138A0B4092890A402A
:1017D000002B02D0002A00D001207047C9430182AB
:1017E0007047000010B5E14988420AD101218C03FD
:1017F0002046FFF7A0F92046BDE810400021FFF782
:101800009AB9DB4988420AD101214C042046FFF7EE
:101810009DF92046BDE810400021FFF797B9D54952
:1018200088420AD101218C042046FFF78FF9204617
:10183000BDE810400021FFF789B9CF4988420AD19D
:101840000121CC042046FFF781F92046BDE8104075
:101850000021FFF77BB9C94988420AD101210C0553
:101860002046FFF773F92046BDE810400021FFF73E
:101870006DB910BD30B585B004460D46208A4CF6D2
:10188000FF710840E98801432182A0894EF6F311D7
:101890000840A9882A8911436A8902431143A1811A
:1018A000A08A4FF6FF410840A9890143A1826846FA
:1018B000FFF7D3F8AD48844201D1039800E00298C5
:1018C000A189090408D500EBC00101EB00102968CB
:1018D0004900B0FBF1F007E000EBC00101EB0010A4
:1018E00029688900B0FBF1F06422B0FBF2F1090134
:1018F0000B096FF018056B4300EB8300A3891D04EF
:101900004FF0320307D503EBC000B0FBF2F000F05C
:101910000700084306E003EB0010B0FBF2F000F014
:101920000F000843208105B030BD4FF4165101600F
:1019300000218180C18001810C2242818181704718
:1019400010B5038A4FF2FF0213400A884C882243E5
:101950008C88C9880C4322431A43028210BD00219F
:10196000018041808180C1807047002904D0818935
:1019700041F4005181817047818921F400518181B6
:10198000704710B540F66A13C1F3421301F01F040B
:101990000121A140012B07D0022B07D014303AB10E
:1019A00002680A43026010BD0C30F8E71030F6E719
:1019B00002688A43026010BD002A03D0828A0A436B
:1019C00082827047828A8A4382827047028A22F02A
:1019D0000F020282028A0A4302827047828922F43D
:1019E0000062828182890A4382817047002904D083
:1019F000818941F0020181817047818921F00201D2
:101A000081817047028A22F020020282028A0A4300
:101A100002827047002904D0018A41F4804101828A
:101A20007047018A21F4804101827047C1F30801A7
:101A3000818070478088C0F308007047818941F039
:101A4000010181817047028BD2B20283028B42EA8C
:101A5000012101837047028B02F47F420283028BD3
:101A60000A4302837047002904D0818A41F0200193
:101A700081827047818A21F020018182704700298C
:101A800004D0818A41F0100181827047818A21F05F
:101A9000100181827047002904D0818A41F0080139
:101AA00081827047818A21F0080181827047002974
:101AB00004D0818941F40041818170478189C1F35B
:101AC0000E0181817047002904D0818A41F40061B0
:101AD00081827047818A21F4006181827047828A05
:101AE00022F004028282828A0A438282704700299D
:101AF00004D0818A41F0020181827047818A21F0FD
:101B00000201818270470246002012880A4200D0FA
:101B1000012070478A05C9430180704770B50024D1
:101B200040F66A12C1F3421301F01F05012606FABE
:101B300005F2012B0CD0022B0DD0838A1340090A29
:101B40008E40008830400BB100B10124204670BDAA
:101B500083891340F3E7038A1340F0E740F66A12E3
:101B60000A0A01219140C9430180704700380140B1
:101B70000044004000480040004C0040005000403D
:101B80000948804709480047FEE7FEE7FEE7FEE711
:101B9000FEE7FEE7FEE7FEE7FEE7FEE7044805494D
:101BA000054A064B704700007D1C0008ED00000848
:101BB00068060020680C00206808002068080020E3
:101BC0007047FEE7FEE7FEE7FEE7704770477047A5
:101BD000704700000CB50022019200925248016843
:101BE00041F4803101604FF4A063016801F40031D9
:101BF00000910199491C0191009911B901999942EB
:101C0000F3D10168890302D50121009100E000921F
:101C10000099012930D145490A6842F010020A6052
:101C20000A6822F003020A600A6842F002020A60AF
:101C30004168416041684160416841F480614160B0
:101C4000416821F47C114160416841F4E811416030
:101C5000016841F08071016001688901FCD541682B
:101C600021F003014160416841F002014160416897
:101C7000C1F381010229FAD10CBDABE710B52A48A6
:101C8000016841F0010101604168294A1140416049
:101C90000168284A11400160016821F48021016037
:101CA000416821F4FE0141604FF41F018160FFF79C
:101CB000E4FF21494FF00060086010BD10B51A4ADA
:101CC000506800F00C011D4B1D4800290ED004295E
:101CD0000ED008290ED003605168194AC1F30311D0
:101CE000121D515C0268CA40026010BD0360F3E738
:101CF0000360F1E7516801F47011536803F4803315
:101D0000022404EB914133B153689B0307D50D4B7B
:101D100059430160E0E70B4B59430160DCE7074B97
:101D200059430160D8E70000001002400020024043
:101D30000000FFF8FFFFF6FE08ED00E000127A0059
:101D40001400002000093D008EB03422BD4901A8D6
:101D500001F097FA00F09CF94FF4A060FEF746FA04
:101D600000F042FA00F098FF00F069FD00F03EFE3E
:101D70004FF4165000F0ACFE00F074FF01F022F8B2
:101D800008E00823B0A20621142000F083FC6420A0
:101D900001F04EF901F013F90028F2D100F03BFBFD
:101DA00000221146142000F0CDFC01220021202049
:101DB00000F0C8FC022200212C2000F0C3FC03220A
:101DC0000021382000F0BEFC04220021442000F055
:101DD000B9FC05220021502000F0B4FC06220021AD
:101DE0005C2000F0AFFC01279A4EDFF86C829B4C20
:101DF00000252089401C2081002000F07DFF2070FC
:101E000004284FD16078401CC0B26070012800D90E
:101E1000657000F000FB607810B1012824D041E02B
:101E200000221146142000F08DFC01220021202008
:101E300000F088FC022200212C2000F083FC032209
:101E40000021382000F07EFC04220021442000F014
:101E500079FC05220021502000F074FC06220021AC
:101E60005C2000F06FFC1DE007220021142000F030
:101E700069FC08220021202000F064FC0F220021D0
:101E80002C2000F05FFC10220021382000F05AFCCA
:101E900011220021442000F055FC12220021502084
:101EA00000F050FC607848B10128A2D120780328C6
:101EB00072D0012871D0022870D0A6E02089642851
:101EC00097D3258101F083F8E060072202210020EA
:101ED00000F038FC082202210C2000F033FCE068FE
:101EE00002F0A2FA02460B465DA101A801F0B0F88B
:101EF000102301AA0221182000F0CCFB1922022194
:101F0000482000F01FFC042000F0AFFD0A21B0FBC8
:101F1000F1F060810D220421002000F013FC0E225C
:101F200004210C2000F00EFC62894FA101A801F0F1
:101F30008FF8102301AA0421182000F0ABFB4FF406
:101F400080714B48FEF736FC60710B2206210020A1
:101F500000F0F8FB0C220621104600F0F3FB1023E2
:101F600044A20621182000F095FB607928B11A22BE
:101F70000621202000F0E6FB04E01B2206212020A1
:101F800000F0E0FBE07802F087FAE16802F098FAEE
:101F900005D2C6F8B47104E01AE020E029E0C6F8E2
:101FA000B451207902F078FAE16802F089FA05D399
:101FB000607918B96089E188884204D9C8F88471C9
:101FC000C6F8B07115E7C8F88451C6F8B05110E7EB
:101FD000A07810B10020A07017E00120FBE7A078E6
:101FE00018B1E078401CE0700FE02079401C2071AF
:101FF0000BE0A17821B1E07810B1401EE07004E060
:1020000019B9207908B1401E20712379E2781AA10C
:1020100001A801F01DF8102301AA0421002000F0FE
:1020200039FBA07830B1102318A20421282000F039
:1020300031FBDEE6102315A20421602000F02AFB0C
:10204000D7E60000B44600085761697421212121B8
:1020500021000000008021420000214228000020D1
:102060003A25342E316600003A25336470706D00D5
:10207000000801403A000000463A2532644320201F
:10208000573A253264432020000000003C00000045
:1020900010B50420FEF7F2F81A481B490068B0FB9F
:1020A000F1F01A49C0B2087000EB4002C2EBC01058
:1020B0004FF6FF7202EAC000488010BD134909784C
:1020C00048434FF0E021486100238B61086940F0EC
:1020D000010008610869C20701D0C003FAD5086988
:1020E00020F0010008618B61704770B5054600243F
:1020F0004FF47A7603E03046FFF7E0FF641CAC4211
:10210000F9D370BD1400002040420F0038000020B9
:10211000704732490A885206FCD5304AC1B2121DB6
:102120001180704770B586B00546012144F2040065
:10213000FEF7EBFC4FF40070ADF8140003248DF8AB
:10214000164018218DF81710254E05A93046FEF7C8
:10215000D6FA3115ADF8141004218DF8171005A921
:102160003046FEF7CCFA25208DF800008DF80140AE
:102170008DF8024001208DF803006846FEF73BF819
:1021800001950020ADF80800ADF80A00ADF80C008C
:10219000ADF810000C20ADF80E00104C01A920463F
:1021A000FFF768FB012240F225512046FFF7E9FBCB
:1021B00001212046FFF7D9FB06B070BD10B5074CD2
:1021C00040F225512046FFF7A9FC002804D0204604
:1021D000FFF730FC0349087010BD000000380140D3
:1021E000000801403C000020F8B501211020FEF756
:1021F0008CFC01210820FEF788FC10208DF80300DC
:102200004402ADF8004003258DF802500B4E69469C
:102210003046FEF774FA21463046FEF7E1FA042014
:10222000ADF800008DF80250054C69462046FEF7D7
:1022300066FA04212046FEF7D3FAF8BD00100140EB
:10224000000C014010B5FB4C40212046FEF7C6FAB9
:1022500080212046FEF7C2FA80212046FEF7C0FA10
:102260002046BDE810404021FEF7BABA10B5F14C47
:1022700040212046FEF7B2FA80212046FEF7B0FA50
:102280002046BDE810408021FEF7A8BA10B5E94C01
:1022900040212046FEF7A2FA2046BDE8104040212A
:1022A000FEF79EBA70B50446E24E40213046FEF776
:1022B00097FA002504F08000802812D08021304653
:1022C000FEF78EFA6006040E40213046FEF786FACD
:1022D00040213046FEF784FA6D1CEDB2082DE9D39B
:1022E00070BD80213046FEF779FAEBE710B5044661
:1022F000FFF7A8FF7820FFF7D5FFFFF7C7FF002003
:10230000FFF7D0FFFFF7C2FF2046FFF7CBFFFFF735
:10231000BDFFBDE81040A9E710B50446FFF792FFE6
:102320007820FFF7BFFFFFF7B1FF4020FFF7BAFFAC
:10233000FFF7ACFF2046FFF7B5FFFFF7A7FFBDE8AB
:10234000104093E7002901D0C0B2E5E7C0B2CDE765
:1023500070B506460025002105F1B000FFF7F2FF39
:1023600000210846FFF7EEFF00211020FFF7EAFFEB
:10237000002401213046FFF7E5FF641CE4B2802C05
:10238000F7D36D1CEDB2082DE5D370BD002808D041
:1023900041F665021146491E0029FCD1401E002865
:1023A000F8D1704704E00021491CC9B27B29FBD356
:1023B000401E411CF7D1704710B504460846002165
:1023C000B030FFF7BFFF102040EA14100021FFF7E4
:1023D000B9FF04F00F00BDE810400021B2E710B5CE
:1023E00000218D20FFF7AEFF00211420FFF7AAFF88
:1023F0000021BDE81040AF20A4E710B500218D20DA
:10240000FFF7A0FF00211020FFF79CFF0021BDE88F
:102410001040AE2096E770B50025002105F1B00010
:10242000FFF790FF00210846FFF78CFF00211020E6
:10243000FFF788FF002401210020FFF783FF641CC1
:10244000E4B2802CF7D36D1CEDB2082DE5D370BD3E
:1024500070B50025002105F1B000FFF773FF0021E2
:102460000846FFF76FFF00211020FFF76BFF0024E5
:1024700001210846FFF766FF641CE4B2802CF7D305
:102480006D1CEDB2082DE5D370BD2DE9F0418046FD
:102490000F460024203AD5B2B8F17F0F02D9A046EA
:1024A000BF1CFFB2102B12D039464046FFF784FF05
:1024B000614905EB450001EB40050121285DFFF76F
:1024C00041FF641CE4B2062CF7D3BDE8F081394625
:1024D0004046FFF771FF594E04EB05100121305CB7
:1024E000FFF730FF641CE4B2082CF5D37F1CF9B26F
:1024F0004046FFF761FF002404EB05103044012142
:10250000007AFFF71FFF641CE4B2082CF4D3DCE769
:102510002DE9F04180460F460024203AD5B2B8F1AB
:102520007F0F02D9A046BF1CFFB2102B12D0394634
:102530004046FFF741FF404905EB450001EB4005F0
:102540000121285DC043FFF7FDFE641CE4B2062CA8
:10255000F6D3BAE739464046FFF72EFF374E04EB75
:1025600005100121305CC043FFF7ECFE641CE4B2AF
:10257000082CF4D37F1CF9B24046FFF71DFF00245E
:1025800004EB051030440121007AC043FFF7DAFE66
:10259000641CE4B2082CF3D397E70346012000E063
:1025A0005843491EC9B2FBD270472DE9F05F8046FF
:1025B000DDF828A08B4691461D46002600244FEAF0
:1025C0005A071DE0281B401EC1B20A20FFF7E5FF95
:1025D000B9FBF0F00A21B0FBF1F201FB120026B9C1
:1025E000691E8C4201DA78B101263030C2B207FB95
:1025F0000480C0B253465946FFF747FF641CE4B25B
:10260000AC42DFD3BDE8F09F07FB0480C0B2534665
:1026100020225946FFF739FFF0E72DE9F05F8046A9
:10262000DDF828A08B4691461D46002600244FEA7F
:102630005A0723E0000C0140E64600080E49000856
:10264000281B401EC1B20A20FFF7A7FFB9FBF0F01C
:102650000A21B0FBF1F201FB120026B9691E8C427F
:1026600001DA70B101263030C2B207FB0480C0B27B
:1026700053465946FFF74CFF641CE4B2AC42DFD32B
:10268000C0E707FB0480C0B2534620225946FFF73B
:102690003FFFF1E72DE9F04104460E461746984604
:1026A000002510E0B8F1100F11D043463146204606
:1026B000FFF7EBFEA41DE4B2782C02D90024761CAF
:1026C000F6B26D1CEDB27A5D002AEBD1FDE6434611
:1026D00031462046FFF7D9FE0834E4B2782C02D9FF
:1026E0000024B61CF6B26D1CEDB2ECE72DE9F0410A
:1026F00004460E4617469846002510E0B8F1100F24
:1027000011D0434631462046FFF702FFA41DE4B234
:10271000782C02D90024761CF6B26D1CEDB27A5DDD
:10272000002AEBD1D1E6434631462046FFF7F0FEC2
:102730000834E4B2782C02D90024B61CF6B26D1C21
:10274000EDB2ECE72DE9F047814688461746414651
:102750004846FFF731FE00247E4E07EB470006EBAC
:1027600000150121285DFFF7EDFD641CE4B20C2C7F
:10277000F7D308F1010808F0FF014846FFF71CFEF7
:102780000024012000EB470000EB400006EBC005F1
:102790000121285DFFF7D6FD641CE4B20C2CF7D3B1
:1027A000BDE8F0872DE9F047814688461746414647
:1027B0004846FFF701FE0024664E803E06EB871573
:1027C0000121285DFFF7BEFD641CE4B2102CF7D395
:1027D00008F1010808F0FF014846FFF7EDFD00246D
:1027E000012000EB470006EB40150121285DFFF7B3
:1027F000A9FD641CE4B2102CF7D3D1E72DE9F04712
:102800008246DDF820900E4690461F460025780748
:1028100012E031465046FFF7CFFD544608E0284607
:102820006D1C19F800000121FFF78CFD641CE4B257
:102830004445F4D3761CF6B2BE42EAD3B0E738B5CD
:1028400001210820FEF761F9C020ADF8000010203A
:102850008DF8030003208DF802003F4C69462046A6
:10286000FDF74DFFC0212046FDF7B8FF4FF448703B
:10287000FFF73BFC0021AE20FFF764FD0021084676
:10288000FFF760FD00211020FFF75CFD00214020D4
:10289000FFF758FD0021B020FFF754FD00218120F3
:1028A000FFF750FD0021FF20FFF74CFD0021A12084
:1028B000FFF748FD0021A620FFF744FD0021A820D6
:1028C000FFF740FD00213F20FFF73CFD0021C8201D
:1028D000FFF738FD0021D320FFF734FD0021084623
:1028E000FFF730FD0021D520FFF72CFD00218020CF
:1028F000FFF728FD0021D820FFF724FD0021052047
:10290000FFF720FD0021D920FFF71CFD0021F12059
:10291000FFF718FD0021DA20FFF714FD0021122037
:10292000FFF710FD0021DB20FFF70CFD0021302018
:10293000FFF708FD00218D20FFF704FD0021142082
:10294000FFF700FD0021AF20FFF7FCFCFFF763FD60
:1029500038BD0000BD000020000C01407FB50446DA
:102960000D4601210846FEF7DBF8ADF80840ADF84A
:1029700004500024ADF80A40ADF806404FF0804501
:1029800001A92846FEF700FA012211462846FEF763
:10299000E6FC1C218DF800108DF8014001218DF816
:1029A00002108DF803106846FDF725FC012128462A
:1029B000FEF7BBFC7FBD10B501218C072046FEF75A
:1029C00001FF00280ED00849D1F8B40140B1002021
:1029D000C1F8B4012046BDE810400121FEF7FEBE5B
:1029E0000120F5E710BD00000000224230B587B09D
:1029F00001214FF40170FEF788F84FF40040FEF714
:102A000007F81020ADF8040000248DF8074001A954
:102A10002D48FDF774FE2D4D2846FDF743FC02942A
:102A20008DF80C408DF80D404FF460210491059411
:102A300001218DF8181002A92846FDF75FFC01213D
:102A40002846FDF783FC2846FDF7A3FC2846FDF742
:102A5000A5FC0028FAD12846FDF7A7FC2846FDF77B
:102A6000A9FC0028FAD107B030BD10B5174C0146BB
:102A7000072301222046FDF7CBFC01212046FDF76C
:102A8000A0FC02212046FDF7A9FD0028F9D0204630
:102A9000BDE81040FDF702BD2DE9F04107460E46A6
:102AA0000025002408E03846FFF7DFFF0544052035
:102AB000FFF71BFB641CE4B2B442F4D3B5FBF6F0A1
:102AC00080B2BDE8F0810000000801400024014010
:102AD000F0B587B0054601210420FEF716F8012164
:102AE0004804FEF71DF80426ADF8186003248DF89D
:102AF0001A4018218DF81B10564F06A93846FDF7CD
:102B0000FEFD0820ADF818008DF81B6006A93846B8
:102B1000FDF7F5FD26208DF804008DF805408DF8B1
:102B2000064001208DF8070001A8FDF764FB02951F
:102B30000020ADF80C00ADF80E00ADF81000ADF8B7
:102B400014000C20ADF81200434C02A92046FEF7F9
:102B500091FE012240F225512046FEF712FF01218D
:102B60002046FEF702FF07B0F0BD2DE9F0413A4DD7
:102B700040F2255631462846FEF7D0FF00282DD0DA
:102B80002846FEF757FFC2B2344C012123782BB1FF
:102B90000020012B06D0022B0CD019E00A2A17D1F5
:102BA000217015E00B2A01D0207011E00221217064
:102BB00060700DE06378022B04D2284FFF1CFA549A
:102BC0005B1C63706278022A02D320706070A1706F
:102BD00031462846BDE8F041FEF7C0BFBDE8F081B0
:102BE00010B504462046FEF721FF80212046FEF75F
:102BF0008AFF0028F9D010BD70B506460D460024A6
:102C00003046295DFFF7ECFF641C285D0028F7D1F2
:102C100040213046FEF777FF0028F9D070BD7CB523
:102C2000064600240B460EA20621684600F024FA50
:102C30006D4603E03046FFF7D3FF641C295D002991
:102C4000F8D17CBD0548C01C007870470348C01C03
:102C5000407870470008014000440040FD05002016
:102C60002575000038B501210420FDF74EFF022034
:102C7000ADF8000010208DF8030003208DF802004D
:102C8000044C69462046FDF73AFD02212046FDF737
:102C9000A7FD38BD0008014038B501210820FDF727
:102CA00034FF4FF40040ADF8000048248DF8034095
:102CB000424D69462846FDF722FD6915ADF8001022
:102CC0008DF8034069462846FDF719FDE914ADF873
:102CD00000108DF8034069462846FDF710FD2915C0
:102CE000ADF800108DF8034003208DF8020069460E
:102CF0002846FDF704FD38BD2DE9F0470126304C8C
:102D0000002800D0267020782C4D4FF400474FF457
:102D100000784FF480694FF4006A98B1394628462C
:102D2000FDF748FDA8B141462846FDF743FD80B1B7
:102D300049462846FDF73EFD58B151462846FDF765
:102D400039FD30B139462846FDF734FD012820D041
:102D500032E00020207039462846FDF72BFD78B17F
:102D600041462846FDF726FD68B149462846FDF74D
:102D700021FD50B151462846FDF71CFD38B11BE03E
:102D80000120BDE8F0870220FBE70320F9E70420DB
:102D9000F7E741462846FDF70DFD01280CD14946CD
:102DA0002846FDF707FD012806D151462846FDF7C4
:102DB00001FD012800D126700020E2E7000C01404F
:102DC0000206002038B501210820FDF79EFE4FF4D1
:102DD0004050ADF8000010208DF8030003208DF85E
:102DE0000200074C69462046FDF789FCA1142046E5
:102DF000FDF7F6FC61142046FDF7F2FC38BD00003B
:102E0000000C014038B501210820FDF77EFE0120AD
:102E1000ADF8000010208DF8030003208DF80200AB
:102E2000894C69462046FDF76AFC01212046FDF7E2
:102E3000D5FC38BD08B50120ADF8000048208DF85C
:102E4000030069468048FDF75AFC08BD08B501201B
:102E5000ADF8000010208DF8030003208DF802006B
:102E600069467948FDF74BFC08BD401E80B2FCD294
:102E7000704710B5FFF7EAFF734C01212046FDF7BC
:102E8000AFFC40F2EE20FFF7F0FF01212046FDF7F6
:102E9000A5FCBDE810401420E7E770B50024FFF75B
:102EA000C9FF694D04E0641CE4B20120FFF7DDFFB7
:102EB00001212846FDF77EFC08B18C2CF3D38C2C25
:102EC00001D3012070BD002404E0641CE4B20120A1
:102ED000FFF7CBFF01212846FDF76CFC08B9F02C69
:102EE000F3D3F02C01D3012070BD002070BD10B5CC
:102EF000FFF7ACFF544C01212046FDF771FC032085
:102F0000FFF7B3FF01212046FDF768FCFFF792FFB2
:102F10001420FFF7AAFF01212046FDF74BFC0128F2
:102F200005D000223220FFF7A0FF104610BD01227D
:102F3000F8E770B500250024FFF7D9FFA04028432B
:102F4000C5B2641CE4B2082CF6D3284670BD70B537
:102F50000546FFF77BFF00243B4E05F001006D089E
:102F600070B101213046FDF73BFC0C20FFF77DFFDF
:102F700001213046FDF732FC4E20FFF776FF0DE0D1
:102F800001213046FDF72CFC5A20FFF76EFF01218E
:102F90003046FDF723FC0520FFF767FF641CE4B211
:102FA000082CDAD370BD10B5FFF763FFFFF775FF8C
:102FB000CC20FFF7CCFFBDE810404420C7E710B598
:102FC000FFF720FFFFF755FFBDE8104065E710B59C
:102FD000FFF74FFFFFF761FF0028FBD0CC20FFF782
:102FE000B6FF0320FFF741FF4420FFF7B0FFFFF7D4
:102FF00040FFFFF752FF0028FBD0CC20FFF7A7FFD0
:103000000320FFF732FFBE20FFF7A1FFFFF791FF7C
:103010000446FFF78EFF000200B2204301F098F94A
:103020006FF0030201F0FFFABDE8104001F056B95D
:103030004FF4966303E01946491E4A1CFCD1401E1A
:1030400080B2F8D270470000000C014070470000C9
:103050000FB41CB5074B06AA7B446946009005983F
:1030600000F0B3FB0020694600F0C2FB1CBC5DF819
:1030700014FB0000950700000FB41CB50C0007AA54
:10308000009001D02044401E074B7B4469460190CC
:10309000069800F09AFB002C03D06946002000F04F
:1030A000A7FB1CBC5DF814FB6D07000070B504465F
:1030B00085690068C10601D5302600E02026C007DA
:1030C00007D070BDD4E9012130469047206A401CEA
:1030D00020626D1EF6D570BD70B504468569007816
:1030E000C00707D170BDD4E9012120209047206A94
:1030F000401C20626D1EF6D570BD00002DE9F04128
:103100000646002410687529314616A510D0AFF385
:103110000080002802DA404213A507E031688A07E0
:1031200001D512A502E0490704D511A5012401E04B
:10313000AFF3008000210A2206F1240709E0B0FB6A
:10314000F2FCB0FBF2F302FB1C003030785418465E
:10315000491C0028F3D123462A463046BDE8F041F9
:1031600000F0C5B8000000002D0000002B0000009A
:10317000200000002DE9F0474FF0000A8946044680
:10318000C0F820A02046E1688847002876D025288E
:1031900006D0D4E901219047206A401C2062F1E763
:1031A000E168204600258847C4F81CA00646002791
:1031B000C4F818A02A2E09D0304601F071F838B3AF
:1031C00004EB8708303EC8F8186019E059F8041B72
:1031D000204604EB87029161E1688847012F06468B
:1031E00018D1E069002820DA25F020051DE0D8F884
:1031F000180000EB800006EB40003038C8F81800DB
:103200002046E1688847064601F04AF80028EED1DA
:10321000012F0AD02E2E08D12046E16888477F1C56
:103220000646022F45F02005C4DBA069002803DA1A
:10323000404245F00105A061E80701D025F01005E6
:10324000B6B1A6F14100192802D8203645F4006530
:103250004A463146204625604D46FCF7A1FF58B14D
:10326000012806D0ED1D25F0070000F1080989E7C7
:1032700004E005F1040985E730468AE7206ABDE8E5
:10328000F08710B5203AC0F00B80B1E81850203A12
:10329000A0E81850B1E81850A0E81850BFF4F5AFF6
:1032A0005FEA027C24BFB1E81850A0E8185044BF80
:1032B00018C918C0BDE810405FEA827C24BF51F8ED
:1032C000043B40F8043B08BF7047D20728BF31F8E1
:1032D000023B48BF11F8012B28BF20F8023B48BF32
:1032E00000F8012B704770477047704770472DE911
:1032F000F0470D4699469246044600F124080168BD
:10330000880604D5E06921F01001216000E0012069
:10331000A84201DD471B00E00027A1697A1902EBF2
:103320000900081AA0612078C00602D42046FFF7E1
:10333000BDFE002608E0D4E901211AF806009047F6
:10334000206A401C761C20624E45F4DB2078C006C3
:103350000AD52046FFF7AAFE06E0D4E90121302075
:103360009047206A401C2062381EA7F10107F4DC58
:1033700007E0D4E9012118F805009047206A401CB5
:103380002062281EA5F10105F3DC2046FFF7A4FE0C
:103390002078000602D50220BDE8F0870120FBE777
:1033A00070472DE9FF4F0C461E464FF0FF378BB09C
:1033B000D2E90001DDF860800A908A46C1F30A551F
:1033C00005B93D46002108464FF00000BAF1000F54
:1033D00000F4400005DA00EB80004FF4400101EA00
:1033E00050004FEA9059B9F1010F00DDB9460A9833
:1033F00050EA4A000ED044F61050A5F2FF3545437E
:103400002F14B8F1000F1ED07542291E1EDDC9F120
:1034100000021CE0B8F1010F4FF0000001D0302194
:1034200003E0F24305E02154401CB042FBDB304690
:103430000022002121540B99C1F80880C1E9002025
:103440000FB0BDE8F08FBD1B6D1CDEE74A4600DA09
:10345000694206A800F064FA06AB93E8070003ABE4
:1034600083E8070050460A9900F03EFB8DE807000C
:10347000A0F500501F3800900398002D0ADD42F29D
:103480001F014A460844002303A90390684600F040
:10349000A7FD09E0A0F500504A461F38002303A904
:1034A0000390684600F0B1FD8DE807000004000CB1
:1034B00003D04FF0FF30410800E01046B8F1000F94
:1034C00003D00022009215461EE0751E05D400F0C0
:1034D000A1F9303262556D1EF9D5B3460122084379
:1034E00002D000227F1C04E02078302801D1002285
:1034F0007F1E002A099784D01DE0112D07DA00F005
:1035000089F9303262556D1C50EA0102F5D1084349
:1035100002D00098C8B10EE00021681E05E0235CCF
:10352000625C63542254401E491C8142F7DBAB4667
:10353000A81B401E0990002004F80B000B98099A64
:10354000C0F80880C0E9002B7AE711264FF0000888
:1035500057E72DE9F04F88460446D21D22F00701B7
:1035600091B0D1E90001CDE90A0100F085FE0246E3
:103570000B98C00F01D02D2007E02068810701D5EE
:103580002B2002E0202101EAC000032A099001D08B
:10359000072A05DB03464146204600F081F90BE18E
:1035A0002078800601D5E06900E00620B8F1650FBB
:1035B000814606D0B8F1660F18D0B8F1670F70D108
:1035C00031E00020B9F1110F009001DB112301E07F
:1035D00009F101030AAA01A90CA8FFF7E2FEDDE93F
:1035E0000C70002609F10105834647E001204B4697
:1035F00000904FF000470AAA01A90CA8FFF7D1FEDE
:10360000DDE90DB00C995D46002610B909F1010005
:103610000D18B9EB050003D4C0F1FF3609F101051F
:10362000A5EB09002BE0B9F1010F01DA4FF0010918
:103630000020B9F1110F0090484601DD112300E090
:1036400003460AAA01A90CA8FFF7ABFEDDE90C703E
:103650004D4600268346207800070AD4AB4500DAA1
:103660005D4601A8012D04DD411911F8011C302926
:1036700007D04F4502DA17F1040F04DA0120824621
:103680000FE06D1EEEE7002F02DCED1B3E4403E071
:10369000781CA84200DD7D1CB81B00F1010A4FF028
:1036A00000472078000703D4AA4501DB4FF0FF3A1A
:1036B0000021B7F1004F0DF143088DF8431024D0DD
:1036C00002202B23002F01DA7F422D230A21021E24
:1036D000A0F1010000DC5FB197FBF1FC97FBF1F278
:1036E00001FB1C7C17460CF1300C08F801CDEEE70D
:1036F000A8F1010003702188090501D5452100E0EA
:103700006521A0F1010800F8011C09980FA9A1EB9F
:103710000807FF1D00B10120411901EBEA70A16902
:103720003844081A401EA0612078C00602D4204602
:10373000FFF7BCFC099828B1D4E901219047206A21
:10374000401C20622078C00622D52046FFF7AEFC40
:103750001EE0002E04DBB34502DD01A8805D00E021
:103760003020D4E901219047206A401C2062761C59
:10377000AAF101005FEA000A0AD100F047F8C06828
:103780000168405CD4E901219047206A401C206216
:10379000281EA5F10105DCDC07E0D4E9012118F8B9
:1037A000010B9047206A401C2062381EA7F10107D8
:1037B000F3DC2046FFF790FC032011B041E6000047
:1037C00001694A1C02610878704700B58FB0CDE9E5
:1037D00001310021059105497944CDE903101146D5
:1037E0006846FFF7C7FC0FB000BD0000E5FFFFFF14
:1037F0000A6802F8010B0A607047D1E900239A4277
:1038000002D2531C0B6010707047000000487047D4
:103810002406002030B5B0F10A024FEA900E71F193
:1038200000034EEA817EB0EB0E0061EB91014FEA9E
:10383000101E4EEA017E10EB0E0041EB11114FEA13
:10384000102E4EEA016E10EB0E0041EB11214FEAF3
:10385000104E4EEA014E10EB0E0041EB11414018A4
:1038600041F100014FEAD00040EA41704FEAD10136
:1038700010EB80054FEA810444EA907444EB0104A4
:103880006D1944EB0404521BA3414FF0000348BFE1
:103890000A3200D530BD401C41F1000130BD0000AE
:1038A0002DE9F0411F46044603260168072A01F46A
:1038B000006004DB08B116A505E016A503E008B119
:1038C00015A500E015A521F010002060A069C01E1C
:1038D000A0610FB1401EA0612046FFF7E7FB4FB18A
:1038E000D4E9012138469047206A401C2062C01C60
:1038F000206206E0206AFAE7D4E9012115F8010BFD
:103900009047761EF8D22046FFF7E6FBBDE8F0812F
:103910004E414E006E616E00494E4600696E660073
:103920002DE9F047814616468AB0354878440DC8DF
:103930008DE80D0032487844801C03AC0DC884E843
:103940000D0041F69B300844372190FBF1F290FBCB
:10395000F1F5A5F1800501FB12041B3C02D5644280
:10396000012000E00020DFF898A080460027FA44FC
:10397000AAF1BE0A0EE0E0070AD03246684607EB1D
:10398000470101230AEB810100F03FFB8DE80700AE
:1039900064107F1C002CEED1194F7F44AE3F19E01C
:1039A000E80715D007EB04100DF1180A90E80E0097
:1039B0008AE80E00C068F04201D19819089032469A
:1039C000012306A903A800F020FB03AB83E807004E
:1039D0006D10641C002DE3D14FF00103324669469F
:1039E000B8F1000F03A802D000F0FAFA01E000F0ED
:1039F0000CFBC9E90001C9F808200AB0BDE8F0874E
:103A00004C16000000487047040600207546FFF77A
:103A1000F9FFAE4605006946534620F0070085468B
:103A200018B020B5FEF7BAF8BDE820404FF0000608
:103A30004FF000074FF000084FF0000B21F0070196
:103A4000AC46ACE8C009ACE8C009ACE8C009ACE8D9
:103A5000C0098D46704710B50446AFF3008020467C
:103A6000BDE81040FCF7BCBB4FF0013C50F8042B04
:103A700051F8043B9A4221D1A2EB0C03934313EA81
:103A8000CC1317D150F8042B51F8043B9A4215D1AE
:103A9000A2EB0C03934313EACC130BD150F8042B85
:103AA00051F8043B9A4209D1A2EB0C03934313EA69
:103AB000CC13DBD04FF00000704700BFD01A01BA22
:103AC000B1FA81F101F0180122FA01F0CB40C1F105
:103AD0002001DBB2C0B2C01A2CFA01F3D11A914313
:103AE00011EAC311E6D170475FEA400C08BF91F0BC
:103AF000000F4FEA8C234FEAC12243EA51514FEAAB
:103B00001C5018BF00F5F0404FEA300018BF41F0DC
:103B100000415FEA6C5C00F02980BCF1FF3F08BF08
:103B200040F080407047130C06BF12044FF0100C99
:103B30004FF0000C130E04BF12020CF1080C130F0F
:103B400004BF12010CF1040C930F04BF92000CF19E
:103B5000020CD30F04BF52000CF1010C11464FF0C0
:103B60000002A0F11F00A0EB0C00704711F0004F05
:103B700008BF704731F000413FF4D5AF0B0C06BFD2
:103B800009044FF0100C4FF0000C0B0E04BF09029B
:103B90000CF1080C0B0F04BF09010CF1040C8B0F86
:103BA00004BF89000CF1020CCB0F04BF49000CF1DB
:103BB000010CCCF12003A0EB0C0022FA03F302FA73
:103BC0000CF241EA030100F10100704720F07F4C44
:103BD00080EA030023F07F47ACEB070303F57C5337
:103BE00000F0004003F1FF032DE980494FEA154B37
:103BF00009B44FEA144325EA0B4E24EA03480FF2B6
:103C0000042606EB132749083E785FEA320203FBDD
:103C10000667C7F5000707FB06F64FEA54374FEA79
:103C2000D64606F1020607FB066CCCF1005C4FEAB3
:103C30001C472CEA074C07FB06F40CFB06F504EBCB
:103C400015464FEA961634BF00204FF000404FEA69
:103C5000D13706FB07FC4FEA1C4C0CFB0BF7D21BC1
:103C600003FB0CF761EB07010CFB0EF7B0EB074011
:103C700072EB17420CFB08F734BFA2EB0742B2EB22
:103C8000074261EB17414FEA0C444FEA910706FBEC
:103C900007FC4FEA1C4C0CFB0BF7B0EBC74072EB78
:103CA000573203FB0CF734BFA2EBC742B2EBC7425B
:103CB00061EB57310CFB0EF7B0EBC70072EB57729C
:103CC0000CFB08F734BFA2EBC702B2EBC70261EBF3
:103CD0005771039F4FEA816141EA921104EBCC04D2
:103CE0004FEAD1374FEA826206FB07FC42EA9012A4
:103CF0004FEA80604FEA1C4C0CFB0BF7D21B03FB16
:103D00000CF761EB07010CFB0EF7B0EB074072EB11
:103D100017420CFB08F734BFA2EB0742B2EB074295
:103D200061EB17414FEA8C554FEA910704EB9C2455
:103D300006FB07FC4FEA1C4C0CFB0BF7B0EBC74033
:103D400072EB573203FB0CF734BFA2EBC742B2EB66
:103D5000C74261EB57310CFB0EF7B0EBC70072EBBB
:103D600057720CFB08F734BFA2EBC702B2EBC702D5
:103D700061EB577115EB4C254FEA816141EA9211D5
:103D80004FEA82624FEAD13742EA901206FB07FC03
:103D900044F100044FEA80604FEA1C4C0CFB0BF727
:103DA000D21B03FB0CF761EB07010CFB0EF7B0EB2A
:103DB000074072EB17420CFB08F734BFA2EB074237
:103DC000B2EB074261EB174115EB1C154FEA81314D
:103DD00041EA92414FEA823242EA90424FEA803011
:103DE0004FEA0C7644F1000448EA03434EEA0B48DC
:103DF0004FF0000EB2EB080C71EB030724BF6246D4
:103E000039464EEB0E0E4FF0000B0018524149415F
:103E10004BEB0B0BB2EB080C71EB03077BF1000BC8
:103E200024BF624639464EEB0E0E4FF0000B0018D1
:103E3000524149414BEB0B0BB2EB080C71EB030702
:103E40007BF1000B24BF624639464EEB0E0E51EA61
:103E5000020718BF46F0010616EB0E7655F1000278
:103E600054F1000103D5BDE88901BDE80088BDE833
:103E70008901BDE80048B619524141EB0101A3F1A7
:103E80000103704780807F7E7D7C7B7A79787776AE
:103E900076757473727171706F6E6E6D6C6C6B6A27
:103EA0006A696868676666656464636362616160C5
:103EB000605F5F5E5E5D5D5C5C5B5B5A5A59595842
:103EC00058575756565555555454535352525251AC
:103ED000515050504F4F4F4E4E4D4D4D4C4C4C4B02
:103EE0004B4B4A4A4A494949484848474747474649
:103EF0004646454545444444444343434342424285
:103F000042414141002B9C4630D477002BD01CB558
:103F10004FEA370703B44FF010004FF01001BAF129
:103F2000000F06D0BCF1000FDCBF40F0080040F0ED
:103F300008014FF000000FBCBDE810400BF1010B71
:103F4000BBF1010F08BF5FEA170722BF12F10102A0
:103F500011F101014FF0004143F1000300F0004076
:103F600043EA00007047F9D35708D0E746EA06460F
:103F700013F1400F4FEA16461FDD13F1200FDFBF8C
:103F800016430A46002120335B42BED0C3F120070E
:103F900046EA064602FA07F74FEA164646EA0706D9
:103FA000C3F1200722FA03F201FA07F721FA03F11D
:103FB0004FF0000342EA0702A7E746EA020646EA94
:103FC00006464FEA164646EA0106BCBF46EA0646E2
:103FD000360C4FF000034FF000024FF0000194E761
:103FE0002DE9804C9A46934670B491E8380007C892
:103FF00031EA400C48BF34EA430C03D5FFF7E6FD35
:10400000FFF780FFF0BCBDE8008C2DE9804C9A469C
:10401000934670B491E8380007C810F0804F08BF8D
:1040200013F0804F03D100F005F8FFF76BFFF0BCF1
:10403000BDE8008C20F07F4780EA030023F07F4C2E
:1040400007EB0C03A3F57C5300F00040A3F1FE0343
:1040500092F0000F00F0B38095F0000F00F0778031
:104060002DE901494FEA11404FEA144621EA004880
:1040700000FB06FC24EA064708FB06F607FB08F8E7
:1040800000FB07F718EB06484CEB164C4FEA124BB7
:1040900018EB07484FEA15464CEB174022EA0B4E47
:1040A0000BFB06FC25EA06470EFB06F607FB0EFE99
:1040B0000BFB07F71EEB064E4CEB164C4FF00006C1
:1040C0001EEB074E4CEB174B18EB0B0840F10000B2
:1040D00018EB0E0B58EB000840F100008F1A4FF060
:1040E00000013CBFC943661B14BFB5EB040C0021A3
:1040F0003CBFC943F61B4FEA17444EEA8E0E27EA2F
:1041000004454FEA1C4704FB07622CEA074C05FBF9
:1041100007F70CFB05F604FB0CFC16EB074642EB1D
:10412000174216EB0C4642EB1C421BEB060658EB03
:104130000202414146EA9E0601D5BDE80189B61951
:10414000524141EB0101A3F10103BDE801894FEAAE
:1041500014454FEA114724EA054621EA074C05FBBE
:1041600007F406FB07F70CFB06F105FB0CFC11EB53
:10417000074144EB17444FEA124711EB0C4144EB63
:104180001C4422EA074C05FB07F206FB07F70CFB71
:1041900006F605FB0CFC16EB074642EB174216EB46
:1041A0000C4642EB1C456A1854F1000148BF7047A9
:1041B000B619524141EB0101A3F10103704795F09B
:1041C000000F37D04FEA11424FEA144721EA024666
:1041D00024EA074C02FB07F106FB07F70CFB06F489
:1041E00002FB0CFC14EB074441EB17414FEA154767
:1041F00014EB0C4441EB1C4125EA074C02FB07F58C
:1042000006FB07F70CFB06F602FB0CFC16EB074659
:1042100045EB174516EB0C4645EB1C42121951F1C4
:10422000000148BF7047B619524141EB0101A3F1AB
:10423000010370474FEA14454FEA114724EA054647
:1042400021EA074C05FB07F106FB07F70CFB06F21A
:104250004FF0000605FB0CFC12EB074241EB174147
:1042600012EB0C4251EB1C4148BF7047921841EBD6
:104270000101A3F101037047490050EAC12018BFB2
:1042800004204A0D18BF40F0010040F2FF72B2EB6B
:10429000515F08BF40F00200012808BF05207047A9
:1042A00030380A2801D201207047002070470000F2
:1042B00010B500290AD00878002807D005487844AE
:1042C000FFF7D2FB002801D0002010BD024878443F
:1042D00010BD0000F60C0000EE0C000021F00042C2
:1042E000A2F16052B2F5801F01F0004328BFD2F165
:1042F0007F6C0BD95FEA001C43EAC20242EB5070AC
:1043000018BF704728BF20F001007047B2F5801F2A
:10431000BCBF184670474FEA410C1CF5001F02D283
:10432000084600F047B970B500F029F80000008990
:10433000FFF7F6BF4FF00040A0F580007047000087
:1043400002494FF0000000F03CB900BF0000F87FC8
:1043500010F0004248BF4042B0FA80F310FA03F177
:104360000AD0C3F11D0303F580634FEA415002EB0D
:10437000035202EBD12170474FF0000070470EF15D
:10438000020E2EF0030E5EF8046B364205D4012AAD
:1043900043EB030515F5001F12D8012841EB010C72
:1043A0001CF5001F0CD80ED14FEAD17C15F5001F6B
:1043B0000CEB4C0C0CF1020C08BF4CEBD37C04E072
:1043C0004FF0080C01E04FEAD37C0CEB4C0526FAC9
:1043D00005F606F00706B6F1040C06D20EEB860CC5
:1043E000BDE870404CF0010C6047DFE80CF0090BB1
:1043F00002024FF000414FF00000A1F5002170BD16
:1044000019461046012851EB010418BFD4F50014D9
:1044100084BF002001F0004170BD0808A0F5001124
:104420004FEA31017047000043004FEAD30C4FEAD6
:104430003C0C43401FBF40070CF1605113F0FE4F8E
:1044400070471CF0006F03D100200CF00041704752
:104450000CF0004343EA507010B540EACC0000F085
:1044600063F800BF000000924FEA0001FFF7D5BFDC
:104470004FF000414FF00000A1F5002170474010BF
:1044800058BFC0F14040491058BFC1F1404181427E
:10449000EFF3008070470000B0FA80F310FA03F2E7
:1044A000C3F19D030AD0D90501EB1220530638BF92
:1044B000704700F1010008BF20F0010070470000C4
:1044C00050EA010C00F113801CF5000F58BFBCF539
:1044D000000F01D48842704707D710F5000F58BF6E
:1044E00011F5000F15D488427047894270471CF5BA
:1044F000000F04D5BCF5000FF7D5814270474FF08F
:10450000807C1CEB400F38BF1CEB410F01D2814275
:10451000704710B500F008F8922449004FF00050A1
:104520004FF08051FFF7ABBF0EF1020E2EF0030EDD
:104530005EF8044B244204D44FEA4102B2F17F4FAB
:1045400011D84FEA4003B3F17F4F0CD80ED14FEA98
:10455000D07CB2F17F4F0CEB4C0C0CF1020C08BF7D
:104560004CEBD17C04E04FF0080C01E04FEAD17C29
:104570000CEB4C0324FA03F404F00704B4F1040C2C
:1045800006D20EEB840CBDE810404CF0010C6047E5
:10459000DFE80CF0070802024FF00040A0F58000B1
:1045A00010BD0846420018BFD2F1807288BF00F0EB
:1045B000004010BDFF2141EAD050C0057047FEF712
:1045C000C8BF0CF00F03092B08BF082000F059806A
:1045D0000A2B0BD0082B18BF704708BF1CF0400FE8
:1045E0000AD04FF000004FF0000170471CF0400F60
:1045F00018BF4FF0004070471CF0100F08D020F09B
:10460000704300F07F4242EAD3014FEA43707047A3
:1046100000F0604021F07F4242EA000201F07F405A
:1046200040EA727070474FF0FF0C4CF4E06C1CEAEB
:1046300011531CBF9CEA030C9445C2BFDA4201EB44
:1046400002517047002B0DD0BCF1000F0FD0002A93
:1046500001F00041A4BF41F0E04141F07F614FF023
:104660000000704701F000414FF00000704750EA31
:1046700001334FF09B0C18BF4CF0806C7FF460AEA0
:1046800070471CF4801F11D01CF4E02F03D06FEA98
:10469000CC31490070474FF04050EFF3008222F0D8
:1046A000704242EA000282F3008870474FF0000037
:1046B0007047000020000000000000000000000023
:1046C00000000000000000000000000000000000EA
:1046D00000000000000000000000000000000000DA
:1046E0000000000000000000000000000000002F9B
:1046F000000000000700070000147F147F1400244E
:104700002A7F2A120062640813230036495522507A
:1047100000000503000000001C22410000004122AF
:104720001C000014083E08140008083E0808000099
:1047300000A0600000080808080800006060000091
:10474000002010080402003E5149453E0000427F0F
:104750004000004261514946002141454B3100185B
:1047600014127F10002745454539003C4A4949301D
:1047700000017109050300364949493600064949D7
:10478000291E0000363600000000563600000008E2
:1047900014224100001414141414000041221408BF
:1047A00000020151090600324959513E007C1211A4
:1047B000127C007F49494936003E41414122007F39
:1047C0004141221C007F49494941007F09090901F3
:1047D000003E4149497A007F0808087F0000417F78
:1047E0004100002040413F01007F08142241007F2A
:1047F00040404040007F020C027F007F0408107F91
:10480000003E4141413E007F09090906003E4151F9
:10481000215E007F091929460046494949310001B6
:10482000017F0101003F4040403F001F2040201F0A
:10483000003F4038403F00631408146300070870CD
:10484000080700615149454300007F414100005580
:104850002A552A55000041417F000004020102044C
:104860000040404040400000010204000020545439
:104870005478007F48444438003844444420003889
:104880004444487F00385454541800087E090102FB
:104890000018A4A4A47C007F080404780000447DD0
:1048A0004000004080847D00007F1028440000000C
:1048B000417F4000007C04180478007C08040478E0
:1048C00000384444443800FC2424241800182424CC
:1048D00018FC007C080404080048545454200004C8
:1048E0003F444020003C4040207C001C2040201CD5
:1048F000003C4030403C004428102844001CA0A04C
:10490000A07C004464544C44141414141414000087
:104910000000000000000000000000000000000097
:1049200000F800000000000000333000000000101C
:104930000C06100C0600000000000000000040C043
:104940007840C0784000043F04043F040400007035
:1049500088FC08300000001820FF211E0000F0082D
:10496000F000E018000000211C031E211E0000F0D2
:104970000888700000001E2123241927211010161A
:104980000E00000000000000000000000000000019
:1049900000E0180402000000000718204000000298
:1049A0000418E0000000004020180700000040400C
:1049B00080F0804040000202010F0102020000006E
:1049C00000F0000000000101011F010101000000D2
:1049D00000000000000080B0700000000000000037
:1049E00000000000000000010101010101010000C0
:1049F0000000000000000030300000000000000057
:104A0000000080601804006018060100000000E04B
:104A100010080810E000000F102020100F000010F8
:104A200010F8000000000020203F2020000000704F
:104A30000808088870000030282422213000003047
:104A40000888884830000018202020110E0000003F
:104A5000C02010F8000000070424243F240000F8C0
:104A60000888880808000019212020110E0000E0A5
:104A7000108888180000000F112020110E00003847
:104A80000808C83808000000003F0000000000705F
:104A9000880808887000001C222121221C0000E0E8
:104AA00010080810E0000000312222110F00000061
:104AB00000C0C00000000000003030000000000016
:104AC0000080000000000000806000000000000086
:104AD000804020100800000102040810200040401F
:104AE0004040404040000404040404040400000862
:104AF0001020408000000020100804020100007017
:104B000048080808F0000000003036010000C030FE
:104B1000C828E810E0000718272423140B00000021
:104B2000C038E0000000203C23020227382008F8AB
:104B3000888888700000203F202020110E00C0309F
:104B4000080808083800071820202010080008F876
:104B500008080810E000203F202020100F0008F86F
:104B60008888E8081000203F20202320180008F83B
:104B70008888E8081000203F200003000000C030B3
:104B800008080838000007182020221E020008F834
:104B900008000008F808203F210101213F200008FB
:104BA00008F8080800000020203F20200000000036
:104BB0000808F8080800C08080807F00000008F81E
:104BC00088C028180800203F20012638200008F857
:104BD000080000000000203F20202020300008F8BE
:104BE000F800F8F80800203F003F003F200008F8D8
:104BF00030C00008F808203F200007183F00E010F0
:104C000008080810E0000F10202020100F0008F8FE
:104C100008080808F000203F210101010000E01011
:104C200008080810E0000F18242438504F0008F836
:104C3000888888887000203F2000030C3020007096
:104C40008808080838000038202121221C00180894
:104C500008F8080818000000203F2000000008F8AD
:104C600008000008F808001F202020201F000878F6
:104C7000880000C83808000007380E010000F80856
:104C800000F80008F800033C0700073C0300081880
:104C900068808068180820302C03032C30200838E6
:104CA000C800C83808000000203F2000000010089D
:104CB0000808C838080020382621202018000000E5
:104CC00000FE020202000000007F40404000000C95
:104CD00030C000000000000000010638C0000002E3
:104CE0000202FE000000004040407F000000000083
:104CF00004020202040000000000000000000000A6
:104D000000000000000080808080808080800002A1
:104D1000020400000000000000000000000000008D
:104D20008080808000000019242222223F2008F881
:104D3000008080000000003F112020110E000000C4
:104D4000008080800000000E112020201100000053
:104D500000808088F800000E112020103F20000005
:104D6000808080800000001F222222221300008009
:104D700080F0888888180020203F20200000000054
:104D8000808080808000006B94949493600008F889
:104D9000008080800000203F210000203F20008014
:104DA0009898000000000020203F20200000000014
:104DB00000809898000000C08080807F000008F884
:104DC000000080808000203F24022D302000000859
:104DD00008F8000000000020203F20200000808014
:104DE000808080808000203F20003F20003F808026
:104DF000008080800000203F210000203F20000034
:104E0000808080800000001F202020201F008080E4
:104E100000808000000080FFA12020110E00000013
:104E2000008080808000000E112020A0FF80808004
:104E300080008080800020203F21200001000000B1
:104E40008080808080000033242424241900008086
:104E500080E0808000000000001F20200000808093
:104E6000000000808000001F202020103F20808054
:104E700080000080808000010E30080601008080E4
:104E80000080008080800F300C030C300F00008009
:104E90008000808080000020312E0E312000808034
:104EA00080000080808080818E7018060100008064
:104EB0008080808080000021302C22213000000082
:104EC0000000807C020200000000003F4040000023
:104ED0000000FF00000000000000FF0000000002D2
:104EE000027C800000000040403F000000000006FF
:104EF00001010202040400000000000000000000A4
:104F000002400000000000A000000000054000007A
:104F1000000000C8000000000C4000000000409CA1
:104F200000000000194000000020BCBE000000008E
:104F300034400000BFC91B8E00000004B5400000D3
:104F4000504BCFD06607E2CF010000006C4100005B
:104F50003E8251AADFEEA73401000000D9420000D2
:104F6000DCB5A0E23A301F97FFFFFFFFB445000019
:104F7000FD25A0C8E9A3C14FFFFFFFFFFF3F0000D1
:104F80000000008000000000FF3F000000000080E3
:104F900000000000D04F00080000002004060000C0
:104FA000280100087852000804060020640600006A
:104FB000840100081C00000043000000F8FFFFFF10
:104FC0000C0000000E0000000F0000002E0000008A
:104FD00045020406082D010203040415060708090A
:104FE00084A24A0479142113465AE25010091094FD
:104FF00053321E32521006157E4242427E4BFF490A
:10500000010214FF100908CC4A49484ACC180F1174
:105010007F88888482E03E26121252927F0A147E94
:10502000201EFC242424FF04F2FC1F0301010107BD
:105030000901CB080EB015D2329210CE08FF080835
:10504000F830D00B0202020308060108080718080E
:105050000464544C47F44401D204192F3C02020F5B
:1050600006D1C80B82720202827E82024232181678
:105070000808040201E6010204080813201C14C0F9
:105080003FC0E3100C19302A0397F930C80B829205
:10509000DAD6B2B19189C180301304021B080F988F
:1050A000D304091598D4B388CF64D44DC654E4D83A
:1050B0002C04020263CB070879132244E008C05F86
:1050C000D555D55FC04E0402090F0802E1C80BFE9A
:1050D0000A8ABEAAABAABE8A0A901207C8080809A3
:1050E0000A04040A09301F1122803E2AEA02CA3E3D
:1050F000C03D040208095ED930092E601113201C3E
:1051000014C03FC0CA10D7112A08ED21CC030408EF
:1051100030127813FF04CFE493028AA6E03014061D
:1051200001061B0F0401EA0F30E80908FF11917D09
:105130009111FF301C020F052FCA0530C80B0C253A
:105140009DB5555F55B59D0591D00C01090A060323
:1051500002020A0E0101C80BF902E829E909FF0958
:10516000CB0160120FC80905050B0403050E08608A
:105170001410FC03E008FAAAAFAAAAFA02120F1C44
:10518000080F0A01CA0FF0141011F2F00850CF41B5
:10519000414FD010D809070208080502050830C899
:1051A0000A17D555577D5755D517303F08080F08B2
:1051B000080E06E1F009FE1222C2221A02FE1508AC
:1051C000070201130102CB0304C0111FFE2AAA2A01
:1051D000EA0B05DAEE30150402090F3905C9191377
:1051E0008878D7FF18609008041C0402018D21CB39
:1051F000010218C80C9189BDA725E5A525A57D014B
:105200003029312A0F2FC930D00C8282BAAAAAAB1A
:10521000AAAABA8282195B160E0A0A0A0E2965B179
:10522000F00C2010FC03FE2222FE212120120FEDA3
:1052300007020508F0000B11081408E01008080820
:1052400010381B030418D40804021F8848E8B8AEBD
:10525000A801EBE808603A0201C95F11C80C1011FF
:105260001191711FF111111110F03B020163041231
:08527000040407120100000014
:04000005080000ED02
:00000001FF
